:100000000C9412020C943A020C943A020C943E1294
:100010000C943E120C943E120C943A020C943A0248
:100020000C943A020C943A020C943A020C943A0260
:100030000C943A020C943A020C943A020C943A0250
:100040000C949C110C943A020C940C120C94E61132
:100050000C943A020C943A020C943A020C943A0230
:100060000C94B6120C943A0244656661756C742067
:1000700073657474696E677320726573746F7265EB
:10008000642E0044454641554C5453202D20526562
:1000900073657420746F20666163746F7279206475
:1000A000656661756C74730053484F57202D20535B
:1000B000686F772063757272656E742073657474EF
:1000C000696E677320616E6420696E666F726D6120
:1000D00074696F6E0048454C50202D2053686F772F
:1000E00020746869732073637265656E00534554AC
:1000F00041524D2058585858202D20536574207473
:100100006865206368616E676520696E207072653E
:10011000737375726520696E206850612072657115
:100120007569726564206265666F726520746865C2
:1001300020637574646F776E2061726D7320286917
:100140006E7465676572292E0053455449442058E2
:100150005858202D20536574207468652049442028
:100160006F662074686520637574646F776E2030E5
:100170002D3235352028696E7465676572292E0029
:100180005345544455522058585858202D205365F3
:100190007420746865206475726174696F6E206F75
:1001A000662074686520637574646F776E20637968
:1001B000636C6520696E207365636F6E64732028BD
:1001C000696E7465676572292E0053455454494D14
:1001D000452058585858202D205365742074686560
:1001E0002074696D65206166746572207768696343
:1001F000682074686520666C696768742077696C2C
:100200006C20626520637574646F776E20696E2060
:100210006D696E757465732028696E7465676572A3
:10022000292E0053455450524553205858585820B1
:100230002D20536574207468652070726573737522
:1002400072652062656C6F772077686963682074D7
:10025000686520666C696768742077696C6C2063D8
:100260007574646F776E20696E206850612028690C
:100270006E7465676572292E00456E746572206321
:100280006F6D6D616E647320666F6C6C6F77656403
:10029000206279206E65776C696E65206368617293
:1002A00061637465720053797374656D20426F6F7A
:1002B000742056616C75653A2000437574646F77DD
:1002C0006E204475726174696F6E20287365636F68
:1002D0006E6473293A2000437574646F776E2054FE
:1002E000696D6520286D696E75746573293A200003
:1002F000437574646F776E2041726D696E67202854
:10030000685061293A2000437574646F776E2050FD
:10031000726573737572652028685061293A2000F0
:10032000437574646F776E2049443A20002D2D2D5B
:100330002D2D2D2D2D2D2D2D2D2D2D2D2D2D2D2DED
:100340002D2D2D2D2D2D2D000A437574646F776E84
:100350002053657474696E6773002E004669726D70
:10036000776172652056657273696F6E3A2000522C
:100370006573746F72696E672044656661756C742D
:100380007321004C65656D616E2047656F706879FB
:10039000736963616C204C4C4300437574646F77E0
:1003A0006E204D6F64756C6500000000002400270E
:1003B000002A0000000008000201000003040700FA
:1003C00000000000000000434D443A20436F6D6D73
:1003D000616E64206E6F74207265636F676E697AF8
:1003E00065642E00000000002300260029000000A4
:1003F0000000250028002B00040404040404040465
:1004000002020202020203030303030301020408BF
:10041000102040800102040810200102040810206E
:10042000D5135A1B11241FBECFEFD8E0DEBFCDBFBE
:1004300025E0A0EEB2E001C01D92A13CB207E1F7B9
:1004400012E0A0E0B1E0E4E6F7E402C005900D920E
:10045000A03EB107D9F712E0C1E1D2E004C0219774
:10046000FE010E948D1DC031D107C9F70E94A01462
:100470000C94A5230C9400008091220590912305F3
:10048000892BB1F08091240590912505892B81F06D
:100490008091260590912705892B51F081E02091CC
:1004A0001C0530911D05232B09F080E081950895EE
:1004B0008FEF0895CF92DF92EF92FF921F93CF9329
:1004C000DF93CDB7DEB7C854D1090FB6F894DEBFBD
:1004D0000FBECDBF88E4EAE0F1E0DE0111960190A5
:1004E0000D928A95E1F780918205C12CD12C76017D
:1004F0008823C1F01091840560E070E080E89FE3FC
:10050000111158C020E030E04AEF54E40E945D1F12
:1005100020E030E044EC53E40E94941D0E94771EDA
:100520006B017C01809183058823D1F010918505B2
:1005300060E070E080E89FE3111142C020E030E00D
:100540004AEF54E40E945D1F20E030E84CE953E498
:100550000E94941D0E94771EC60ED71EE81EF91E2B
:100560008AEEC80ED11CE11CF11CE091870594E0D5
:10057000E99FF001112481E090E08C0F9D1FE80FAE
:10058000F91F80819181A281B381C816D906EA063C
:10059000FB06E0F08DEFC85BDF4F0FB6F894DEBFCF
:1005A0000FBECDBFDF91CF911F91FF90EF90DF90F5
:1005B000CF9008959B01AC010E94941D1150A0CFD3
:1005C0009B01AC010E94941D1150B6CF80E0E3CF97
:1005D00008950895833081F028F4813099F08230B5
:1005E000A9F008958730A9F08830C9F08430B1F4BB
:1005F000809180008F7D03C0809180008F778093F1
:100600008000089584B58F7784BD089584B58F7D6B
:10061000FBCF8091B0008F778093B00008958091D8
:10062000B0008F7DF9CF1F93CF93DF93282F30E059
:10063000F901ED54FC4F8491F901E45FFB4FD49133
:10064000F901E850FC4FC491CC23A9F0162F811179
:100650000E94EA02EC2FF0E0EE0FFF1FE251FC4F88
:10066000A591B4918FB7F894EC91111108C0D09571
:10067000DE23DC938FBFDF91CF911F910895DE2B96
:10068000F8CFCF93DF9390E0FC01E45FFB4F249120
:1006900088509C4FFC0184918823D1F090E0880F12
:1006A000991FFC01E755FC4FA591B491FC01E25163
:1006B000FC4FC591D49161110EC09FB7F8948C91F5
:1006C000E22FE0958E238C932881E223E8839FBF5D
:1006D000DF91CF9108958FB7F894EC91E22BEC93D2
:1006E0008FBFF6CF3FB7F8948091B8039091B903CC
:1006F000A091BA03B091BB0326B5A89B05C02F3FBC
:1007000019F00196A11DB11D3FBFBA2FA92F982F37
:100710008827BC01CD01620F711D811D911D43E031
:10072000660F771F881F991F4A95D1F708958F92FA
:100730009F92AF92BF92CF92DF92EF92FF926B01A6
:100740007C010E9472034B015C01C114D104E104DD
:10075000F104B9F00E947203681979098A099B09AA
:10076000683E73408105910580F321E0C21AD108EB
:10077000E108F10888EE880E83E0981EA11CB11CE8
:10078000E4CFFF90EF90DF90CF90BF90AF909F901D
:100790008F9008952FB7F8946091B4037091B503CA
:1007A0008091B6039091B7032FBF0895AF92BF9287
:1007B000CF92DF92EF92FF920F931F93CF93DF932D
:1007C0006C017B018B01040F151FEB015E01AE185C
:1007D000BF08C017D10759F06991D601ED91FC917E
:1007E0000190F081E02DC6010995892B79F7C501AB
:1007F000DF91CF911F910F91FF90EF90DF90CF90FD
:10080000BF90AF900895FC01538D448D252F30E0AB
:10081000842F90E0821B930B541710F0CF9608950D
:1008200001970895FC01918D828D981761F0A28D3A
:10083000AE0FBF2FB11D5D968C91928D9F5F9F7300
:10084000928F90E008958FEF9FEF0895FC01918DB6
:10085000828D981731F0828DE80FF11D858D90E023
:1008600008958FEF9FEF0895FC01918D228D892FC0
:1008700090E0805C9F4F821B91098F7399270895A8
:100880008CE594E00E94340421E0892B09F420E0F7
:10089000822F089580E090E0892B29F00E94400487
:1008A00081110C9400000895FC01A48DA80FB92FAC
:1008B000B11DA35ABF4F2C91848D90E001968F7388
:1008C0009927848FA689B7892C93A089B1898C91A7
:1008D000837080648C93938D848D981306C00288F6
:1008E000F389E02D80818F7D80830895EF92FF92C0
:1008F0000F931F93CF93DF93EC0181E0888F9B8D43
:100900008C8D98131AC0E889F989808185FF15C0FC
:100910009FB7F894EE89FF896083E889F98980811F
:100920008370806480839FBF81E090E0DF91CF91EE
:100930001F910F91FF90EF900895F62E0B8D10E010
:100940000F5F1F4F0F731127E02E8C8D8E110CC07F
:100950000FB607FCFACFE889F989808185FFF5CFCA
:10096000CE010E945404F1CFEB8DEC0FFD2FF11D51
:10097000E35AFF4FF0829FB7F8940B8FEA89FB8907
:1009800080818062CFCF0F931F93CF93DF938C0131
:10099000D0E0C0E0F801EC0FFD1F6491662341F048
:1009A0008CE594E00E947604892B11F02196F2CF19
:1009B000CE01DF91CF911F910F910895CF93DF93D7
:1009C000EC01888D8823B9F0AA89BB89E889F98967
:1009D0008C9185FD03C0808186FD0DC00FB607FC9C
:1009E000F7CF8C9185FFF2CF808185FFEDCFCE01CF
:1009F0000E945404E9CFDF91CF910895209186039E
:100A0000309187032817390771F4909184038091FE
:100A10008503981741F0E0918403F0E0EC5BFC4F14
:100A2000808190E008958FEF9FEF08950895EF92F1
:100A3000FF920F931F93CF93DF93DC015C96ED90B1
:100A4000FC905D97E114F10479F481E090E0139655
:100A50009C938E93129790E080E0DF91CF911F914D
:100A60000F91FF90EF9008955196ED91FC91529760
:100A700050968C915097982F90950FB75E962C9129
:100A80005E97122F127021FD6095F894208111233A
:100A900019F1282B2083E7012197F1F728E0462F51
:100AA00050E0308160FF1AC0382B3083E701219776
:100AB000F1F7BA0175956795215089F7112381F0F7
:100AC0008081892380830FBF5C968D919C910197D3
:100AD000F1F781E090E0C1CF2923DCCF3923E5CFC6
:100AE0009081892BEFCF20918603309187032817BF
:100AF000390771F4809185032091840390E0805C34
:100B00009F4F821B910960E470E00E94791D089557
:100B100090E080E0089520918603309187032817A4
:100B20003907B9F49091840380918503981789F06F
:100B3000E0918403F0E0EC5BFC4F80812091840322
:100B400030E02F5F3F4F2F7333272093840390E0D3
:100B500008958FEF9FEF08956330710538F0660FA9
:100B6000771F64507109CB010197F1F70895209127
:100B70000103260F3327331F21323105ECF4209176
:100B80002804FC0190E080E0243069F082E00895C0
:100B9000A09101032191AC014F515D4FA40FB52FDE
:100BA000B11D2C930196861798F380910103680F6D
:100BB0006093010380E0089581E008951092280475
:100BC00081E0809327041092020461E082E10E9498
:100BD000130361E083E10E941303E9EBF0E08081FD
:100BE0008E7F808380818D7F808380E28093B800B8
:100BF00085E48093BC000895CF93DF9391E09093B8
:100C0000E0028823B9F0C091B800D091BA00809179
:100C1000BC008A7B8093BC0060E082E10E941303E9
:100C200060E083E10E9413030E94DE05D093BA00C6
:100C3000C093B800DF91CF9108958F929F92AF92A9
:100C4000BF92CF92DF92EF92FF920F931F93CF93B9
:100C5000DF93D0915104D13208F0D7C0182FC09142
:100C600050040E9472036B017C0180912804811161
:100C70006BC082E080932804109327048FEF809349
:100C8000260410922504D0932404A0E3B4E0E4E009
:100C9000F4E080E0D81391C0109203048091030423
:100CA000CC0FC82BC093030480910204813009F05B
:100CB00088C0109202040E9472036B017C01809133
:100CC00003048093BB0080912A0490912B04A0918F
:100CD0002C04B0912D04892B8A2B8B2BA1F00E9420
:100CE000720300912A0410912B0420912C0430915E
:100CF0002D046C197D098E099F090617170728070F
:100D0000390708F442C08091BC0083FDD8CF85EC40
:100D10008093BC000E9472036B017C0180912804C7
:100D2000823009F450C0809126048F3F09F46FC0CF
:100D300080912604803209F46CC0809126048033AF
:100D400009F469C084E026C080912A0490912B04A4
:100D5000A0912C04B0912D04892B8A2B8B2B09F4A4
:100D600084CF0E94720380902A0490902B04A0905C
:100D70002C04B0902D046C197D098E099F098616EC
:100D80009706A806B90608F070CF809129040E9442
:100D9000FC0585E010922F041092510410922E044D
:100DA000DF91CF911F910F91FF90EF90DF90CF9047
:100DB000BF90AF909F908F9008959D9191938F5F7A
:100DC00069CF85EEA5CF80912A0490912B04A09144
:100DD0002C04B0912D04892B8A2B8B2B09F49ECFE8
:100DE0000E94720300912A0410912B0420912C047C
:100DF00030912D046C197D098E099F09061717077C
:100E00002807390708F08ACFC0CF81E0C3CF80E040
:100E1000C1CF82E0BFCF83E0BDCFCF93DF93EA01A4
:100E2000DC0111968D919C91DC01ED91FC91028089
:100E3000F381E02D0995C817D90729F480E00E94B5
:100E40001D0691E0811190E0892FDF91CF910895E7
:100E50008F929F92AF92BF92CF92DF92EF92FF92CA
:100E60001F93CF93DF931F92CDB7DEB78983E090B6
:100E70008A03F0908B03F9013196D70114968D9176
:100E80009C918E179F0770F481E00F90DF91CF91B6
:100E90001F91FF90EF90DF90CF90BF90AF909F9009
:100EA0008F90089549016B01F70181819281208122
:100EB00011E010932E042093500410922F041092EE
:100EC0005104DC01ED91FC910280F381E02D41E0C1
:100ED00050E0BE016F5F7F4F09950197A9F6A4010D
:100EE000B601C7010E940D078127CFCFCF93DF93B3
:100EF000EC018B818823A1F0888191E090932E04EE
:100F00008093500410922F041092510481E00E94AB
:100F10001D0691E0811190E0892FDF91CF91089516
:100F20001092C1031092C00310922F04109251042A
:100F30000E94DE0588EE92E09093BF038093BE038B
:100F400089EE92E09093BD038093BC0381E08B8394
:100F5000CE010E947607982F8111CECFDDCFE09190
:100F6000C1038091C003E81730F4F0E0EC5DFC4F62
:100F7000808190E008958FEF9FEF08959091C103D5
:100F80008091C0032FEF3FEF981748F4E92FF0E06E
:100F9000EC5DFC4F208130E09F5F9093C103C9015D
:100FA00008958091C0039091C103891B990B089506
:100FB000CF92DF92EF92FF920F931F93CF93DF9325
:100FC0007C01CB018A0120912E04222389F0EB01C0
:100FD0006B01C40ED51ECC15DD0569F06991D701F2
:100FE000ED91FC910190F081E02DC7010995F3CFBF
:100FF000642F0E94B705C801DF91CF911F910F9117
:10100000FF90EF90DF90CF900895CF93DF931F92E2
:10101000CDB7DEB7698320912E042223F9F0209109
:101020005104203258F021E030E0FC013383228368
:1010300090E080E00F90DF91CF91089580912F0490
:10104000E82FF0E0E05DFB4F998190838F5F809304
:101050002F048093510481E090E0ECCF61E0CE0159
:1010600001960E94B705F7CF90E080E008954F9277
:101070005F926F927F92AF92BF92CF92DF92EF9288
:10108000FF920F931F93CF93DF931F92CDB7DEB7DD
:101090008983E0908A03F0908B03D70114968D9199
:1010A0009C911597892B09F4FAC0032F122F5B012D
:1010B0008C9191E090932E048093500410922F0411
:1010C0001092510441E050E0BE016F5F7F4FC701B5
:1010D0000E940D07882309F4E2C0C12ED02EF7012B
:1010E000848195818C159D0508F4D9C000810E94EA
:1010F00072032B013C0180912804811168C01132D8
:1011000008F010E281E080932804809327049FEF89
:101110009093260410922504910F909324048093B9
:10112000030480910304000F082B009303048091B3
:101130000204813009F08FC0109202040E947203F1
:101140002B013C01809103048093BB0080912A0411
:1011500090912B04A0912C04B0912D04892B8A2B03
:101160008B2BA1F00E94720320912A0430912B0452
:1011700040912C0450912D04641975098609970932
:10118000261737074807590708F442C08091BC006A
:1011900083FDD8CF85EC8093BC000E9472032B01A5
:1011A0003C0180912804813009F457C080912504C6
:1011B000811710F410912504A4E0B4E0E4E2F3E018
:1011C00080E0811751F19D9191938F5FFACF8091CB
:1011D0002A0490912B04A0912C04B0912D04892B0A
:1011E0008A2B8B2B09F487CF0E94720320912A044B
:1011F00030912B0440912C0450912D0464197509F1
:1012000086099709261737074807590708F073CF4B
:10121000809129040E94FC0510E01092C1031093F4
:10122000C0031C151D04D9F58501C8018A199B0945
:101230008C159D0508F044C0D70111968D919C91A5
:10124000DC01ED91FC910284F385E02D0995F80114
:1012500081938F01EACF85EE9ECF80912A049091F1
:101260002B04A0912C04B0912D04892B8A2B8B2B5D
:1012700009F497CF0E94720320912A0430912B0425
:1012800040912C0450912D04641975098609970921
:10129000261737074807590708F083CFB9CF81E0F1
:1012A0000F90DF91CF911F910F91FF90EF90DF9002
:1012B000CF90BF90AF907F906F905F904F900895C8
:1012C00080E0EECF0F931F93CF93DF9302E514E0FE
:1012D000D0E0C0E0CE010E94CC1CF80181938F01C8
:1012E0002196CA30D105B1F782E594E0DF91CF9124
:1012F0001F910F910895DF92EF92FF920F931F932A
:10130000CF93DF937C018C01D0E0C0E0F801D19055
:101310008F01CE010E94CC1CD81621F06D2DCE017C
:101320000E94D41C2196CA30D10581F7C701DF91F4
:10133000CF911F910F91FF90EF90DF9008953F9212
:101340004F925F926F927F928F929F92AF92BF92D5
:10135000CF92DF92EF92FF920F931F93CF93DF9381
:10136000CDB7DEB7382E4B0129013A01CDB6DEB636
:101370000E943C0281116FC0ADB6BEB680912105BE
:10138000A3019201280F311D411D511D8DB79EB73C
:10139000821B930B0FB6F8949EBF0FBE8DBFEDB7A7
:1013A000FEB731967F01E0912205F091230500916F
:1013B0001C0510911D0580911E0590911F05019738
:1013C00009F441C0B701832D8068099580932005F9
:1013D000840180E090E0DC0120912105AC01BD0199
:1013E000420F511D611D711D4E0D5F1DFA012081BF
:1013F000F80121938F010196A11DB11D48165906D0
:101400006A067B0649F780912005811189EF0FB6A6
:10141000F894BEBE0FBEADBE0FB6F894DEBE0FBED2
:10142000CDBEDF91CF911F910F91FF90EF90DF9094
:10143000CF90BF90AF909F908F907F906F905F9074
:101440004F903F900895A3019201B401832D099517
:1014500080932005D8CF8FEFDFCF2F923F924F920E
:101460005F926F927F928F929F92AF92BF92CF9234
:10147000DF92EF92FF920F931F93CF93DF93CDB73D
:10148000DEB77C018B0149015A012DB63EB6290118
:101490003A01440C551C661C771C8DB79EB7841905
:1014A00095090FB6F8949EBF0FBE8DBFADB7BEB7FE
:1014B00011966D010E943C02811172C08AEF811465
:1014C0009104A104B10409F440C0F8018081D6015F
:1014D0008C9380911E0590911F05892B09F45EC0A5
:1014E000B1E08B169104A104B104E9F0C7010196A3
:1014F000F6010F5F1F4F41E050E060E070E0DC015B
:101500002D91CD012183D8012D918D0122834F5F33
:101510005F4F6F4F7F4F3296481559056A057B051F
:1015200070F35301420100911C0510911D05E091DB
:101530002405F0912505A5019401B601D7018C91F0
:10154000099580932005811189EF0FB6F8943EBE6E
:101550000FBE2DBEDF91CF911F910F91FF90EF90A5
:10156000DF90CF90BF90AF909F908F907F906F90C3
:101570005F904F903F902F900895F701E80FF11D75
:1015800090819F7790838F5F482F50E070E060E0FC
:10159000481559056A057B0580F3A2CF80E0F4CF9A
:1015A0008FEFD3CF1F93CF93DF9300D0CDB7DEB7AC
:1015B0008BE18A831091810521E030E040E050E02A
:1015C000BE016F5F7F4F0E949F09811114C0898106
:1015D0008F7C90E1199F900111242073822B8983C5
:1015E00021E030E040E050E0BE016F5F7F4FCE0170
:1015F00002960E942D0A0F900F90DF91CF911F91BC
:101600000895CF93DF9300D000D0CDB7DEB78EE73B
:101610008C8386EB8B830E943C02811138C021E0D1
:1016200030E040E050E0BE016E5F7F4F83E00E94FB
:101630009F099A8194FF2AC0811128C021E030E0DF
:1016400040E050E0BE016D5F7F4FCE0104960E94E6
:101650002D0A81111CC040911C0550911D05E0917F
:101660002605F091270560ED77E080E090E0099590
:1016700021E030E040E050E0BE016F5F7F4F82E04C
:101680000E949F0999819E7709F481118CEF0F9038
:101690000F900F900F90DF91CF9108952F923F926E
:1016A0004F925F926F927F928F929F92AF92BF9272
:1016B000CF92DF92EF92FF920F931F93CF93DF931E
:1016C000CDB7DEB76E970FB6F894DEBF0FBECDBFB5
:1016D00053E0252E1F86188A198A1A8A33243394D8
:1016E0008E010F5F1F4F3092830580910E05882376
:1016F00009F4A9C284E290E03092820520910F059E
:101700007C012111A3C26894E1F880910D05882322
:1017100011F06894E6F880911005882311F0689420
:10172000E7F80E943C02811152C28BE18F8321E0D5
:1017300030E040E050E0B8010E949F09811115C0DF
:1017400089819091820591708C7F892B909183057E
:10175000990F9270892B898321E030E040E050E0BE
:10176000B801CE0107960E942D0A9701207F3327EA
:10177000232B09F478C081112AC21F82188619868A
:1017800024E030E040E050E0B8018CE10E949F0985
:10179000811169C0C70180739927D12C892BD1F0A1
:1017A00020918505E4FE07C08981887F909184059A
:1017B0009770892B8983E5FE09C08981877C98E031
:1017C000299F900111242873822B89838CE18F83B8
:1017D000DD24D394E7FE1DC080918705823118F087
:1017E000E1E1E09387052D2D30E0F801E20FF31FD2
:1017F0008A81807E909187059F71892B808387E005
:1018000090E08C0F9D1F280F391F8DE1F901808317
:10181000D394E6FE17C02D2D30E0F801E20FF31F40
:1018200080918605880F8E709C81917F892B8083A3
:10183000E7E0F0E0EC0FFD1F2E0F3F1F8FE1F901F5
:101840008083D39480918105833021F40E945A02D1
:10185000811109C02D2D30E050E040E0B801CE01EB
:1018600007960E942D0A8111B2C1309281050E9413
:101870003C028111ACC121E030E040E050E0BE010B
:10188000665F7F4F8BE10E949F09F82E8A8590E06A
:1018900044E0959587954A95E1F783708A87882378
:1018A00039F19BE19F8321E030E040E050E0B80156
:1018B0008BE10E949F09F82E81110DC089818F7CD8
:1018C000898321E030E040E050E0B801CE01079686
:1018D0000E942D0AF82E40911C0550911D05E091A3
:1018E0002605F091270568E873E180E090E009950E
:1018F000F1106DC10E94D20A811169C168E270E0E5
:1019000080E090E00E949703F80126E011922A956A
:10191000E9F70E943C0281115AC126E030E040E024
:1019200050E0B80184E00E949F09811150C18A8172
:101930008B80912CB12CA12C540199248824982AB5
:101940008981882A2D816E8170E090E080E0CB0152
:1019500077276627722B2C81622B0E94A61E20916E
:1019600028053091290540912A0550912B050E94A8
:10197000931D6B017C01AC019B010E945D1F2091B6
:1019800030053091310540913205509133050E9468
:101990005D1F2B013C0120912C0530912D054091BC
:1019A0002E0550912F05C701B6010E945D1F9B01B6
:1019B000AC01C301B2010E94941D2B013C01409275
:1019C0006005509261056092620570926305AC01FA
:1019D0009B010E945D1F6B017C01A30192010E948B
:1019E0005D1F6B8B7C8B8D8B9E8BC501B4010E9420
:1019F000A61E6B877C878D879E879B01AC010E940A
:101A00005D1F6F8B788F898F9A8F20913805309169
:101A1000390540913A0550913B05C301B2010E943E
:101A20005D1F209134053091350540913605509168
:101A300037050E94941D4B015C0120913C053091BB
:101A40003D0540913E0550913F05C701B6010E94FA
:101A50005D1F9B01AC01C501B4010E94941D4B01A7
:101A60005C01209140053091410540914205509123
:101A700043056B897C898D899E890E945D1F9B012E
:101A8000AC01C501B4010E94941D2B853C854D8598
:101A90005E850E945D1F4B015C01209148053091DD
:101AA000490540914A0550914B05C301B2010E947E
:101AB0005D1F2091440530914505409146055091A8
:101AC00047050E94941D6B8F7C8F8D8F9E8F209178
:101AD0004C0530914D0540914E0550914F05C70181
:101AE000B6010E945D1F9B01AC016B8D7C8D8D8DBD
:101AF0009E8D0E94941D6B017C01209150053091B8
:101B0000510540915205509153056B897C898D890F
:101B10009E890E945D1F9B01AC01C701B6010E9416
:101B2000941D9B01AC01C501B4010E94941D6B0181
:101B30007C01209158053091590540915A055091EA
:101B40005B05C301B2010E945D1F209154053091D5
:101B5000550540915605509157050E94941D2F89B7
:101B6000388D498D5A8D0E945D1F4B015C012B857C
:101B70003C854D855E856F89788D898D9A8D0E9413
:101B80005D1F20915C0530915D0540915E0550918F
:101B90005F050E945D1F9B01AC01C501B4010E945D
:101BA000941D9B01AC01C701B6010E94941D409297
:101BB000050550920605609207057092080560932E
:101BC000090570930A0580930B0590930C0520E09E
:101BD00030E048EC52E46091090570910A0580916B
:101BE0000B0590910C050E94051E9B01AC016F85B1
:101BF000788989899A890E94941D6F87788B898B4F
:101C00009A8B2A9421106FCD20E030E040E450E41C
:101C10000E94051E6E960FB6F894DEBF0FBECDBFB4
:101C2000DF91CF911F910F91FF90EF90DF90CF90B8
:101C3000BF90AF909F908F907F906F905F904F90EC
:101C40003F902F90089584E090E056CD22E1E22A63
:101C50005CCDFB0101900020E9F73197AF01461BF5
:101C6000570BDC01ED91FC910280F381E02D09948A
:101C7000CF93DF930E94C304EC0162E971E08CE52D
:101C800094E00E94290E8C0F9D1FDF91CF91089543
:101C9000CF93DF93CDB7DEB72A970FB6F894DEBFA8
:101CA0000FBECDBF8AE0E2E5F1E0DE0111960190C2
:101CB0000D928A95E1F7CE0101960E947B090E9460
:101CC000620988E690E00E94380E2A960FB6F894D2
:101CD000DEBF0FBECDBFDF91CF91089589E792E0BF
:101CE0000E94380E83E292E00E94380E8AEC91E066
:101CF0000E94380E80E891E00E94380E89E491E05D
:101D00000E94380E8DEE90E00E94380E85ED90E036
:101D10000E94380E88EA90E00E94380E83E890E036
:101D20000C94380E8F929F92AF92BF920F931F9395
:101D3000CF93DF93CDB7DEB7A1970FB6F894DEBF90
:101D40000FBECDBF19A2423008F44AE08E010F5DEC
:101D50001F4F842E912CB12CA12CA50194010E941F
:101D6000F21CE62FB901CA01EA3004F5E05DD801A2
:101D7000EE938D01232B242B252B79F790E080E027
:101D8000109729F0BD018CE594E00E94290EA196E0
:101D90000FB6F894DEBF0FBECDBFDF91CF911F917C
:101DA0000F91BF90AF909F908F900895E95CDFCF27
:101DB000CF93DF93682F70E090E080E04AE00E94CC
:101DC000920EEC0162E971E08CE594E00E94290E2C
:101DD0008C0F9D1FDF91CF9108954F925F926F926C
:101DE0007F928F929F92AF92BF92CF92DF92EF92AB
:101DF000FF920F931F93CF936B017C01742EAC0164
:101E00009B010E94CA1F65E971E0811126C046014D
:101E10005701E894B7F82FEF3FEF4FE75FE7C501B1
:101E2000B4010E94CA1F81110CC02FEF3FEF4FE792
:101E30005FE7C501B4010E94001E69E971E0181650
:101E400064F02FEF3FEF4FE75FE4C701B6010E9458
:101E5000581F1816ACF46DE971E08CE594E0CF9151
:101E60001F910F91FF90EF90DF90CF90BF90AF90B8
:101E70009F908F907F906F905F904F900C94290E61
:101E80002FEF3FEF4FE75FECC701B6010E94001E46
:101E900087FDE1CF20E030E0A901C701B6010E9433
:101EA000001E10E000E087FF0AC06DE28CE594E0C0
:101EB0000E9476048C01F7FAF094F7F8F094C0E0F1
:101EC00060E070E080E09FE37C1641F020E030E0CD
:101ED00040E251E40E94051ECF5FF6CFA7019601B4
:101EE0000E94941D2B013C010E94771E4B015C0156
:101EF0004AE00E94920E7C01E00EF11ECC23C1F15B
:101F0000C501B4010E94A61E9B01AC01C301B20130
:101F10000E94931D4B015C016EE28CE594E00E94EF
:101F20007604E80EF91EC15018F120E030E040E2DE
:101F300051E4C501B4010E945D1F2B013C010E94C8
:101F4000771E4B01B12CA12C4AE0C501B4010E94BF
:101F5000920EE80EF91EC501B4010E94A61E9B0157
:101F6000AC01C301B2010E94931D4B015C01DBCFA8
:101F7000C701CF911F910F91FF90EF90DF90CF900D
:101F8000BF90AF909F908F907F906F905F904F9099
:101F900008950F931F93CF93DF93EC010E94290EB6
:101FA0008C0162E971E0CE010E94290E800F911F21
:101FB000DF91CF911F910F910895CF92DF92EF9211
:101FC000FF920F931F93CF93DF93CDB7DEB7CE561B
:101FD000D1090FB6F894DEBF0FBECDBF60EF71E040
:101FE00084EC93E00E949D1C9A8389837E0183E0A8
:101FF000E80EF11C01E010E0D02EC12E60EF71E080
:1020000090E080E00E949D1CD7018D939D937D01FF
:102010000E31110521F00F5F1F4F892B69F70091D9
:10202000000410910104E980FA800115110571F195
:10203000F80160817181C7010E94F420892B11F59C
:10204000D8011296ED91FC91BE016F5F7F4F8D2DEF
:102050009C2D099562E971E08091C2039091C303C0
:102060000E94290EC259DF4F0FB6F894DEBF0FBE93
:10207000CDBFDF91CF911F910F91FF90EF90DF9037
:10208000CF900895F80104811581CFCF67EC73E0FC
:10209000CE01CD960E94961CBE01635C7F4F80915D
:1020A000C2039091C3030E94C90FD4CF0C94290E90
:1020B000CF93DF938CE593E00E94C304C2E5D4E0A4
:1020C000688570E090E080E04AE00E94920E8AE528
:1020D00093E00E94C30489850E94D80E88E493E0AF
:1020E0000E94380E8DE293E00E94380E80E293E069
:1020F0000E94C3048D810E94D80E87E093E00E9465
:10210000C30469817A8190E080E04AE00E94920EE7
:1021100062E971E08CE594E00E94290E80EF92E084
:102120000E94C3046E817F8190E080E04AE00E94BB
:10213000920E62E971E08CE594E00E94290E87ED31
:1021400092E00E94C3048B810E94D80E8AEB92E039
:102150000E94C3048C810E94D80E86EA92E00E94FD
:10216000C3048881DF91CF910C94D80E85ED8093C4
:10217000BC0080912A0490912B04A0912C04B09172
:102180002D040796A11DB11D23E0B695A79597953F
:1021900087952A95D1F72091BC0024FD03C01092A9
:1021A0002804089540912A0450912B0460912C0436
:1021B00070912D04452B462B472B69F30097A10501
:1021C000B10541F02AE12A95F1F700C00197A10974
:1021D000B109E1CF809129040C94FC05CF92DF92E4
:1021E000EF92FF920F931F93CF93DF936C018B01BC
:1021F00086E090E00E94CF1FEC0190930104809351
:102200000004F60101900020E9F7CF018C199D0927
:102210000E94CF1F7C01B6010E94FD20F6010190B3
:102220000020E9F73197EC19FD09EE0DFF1D108232
:10223000F982E8821B830A8380918C0390918D033D
:102240009D838C83D0938D03C0938C03DF91CF91BA
:102250001F910F91FF90EF90DF90CF900895181687
:1022600019068CF4FB014AE050E070E060E08281E6
:1022700093810E94761B6093550482E594E00E944E
:102280007B090C9462090895181619069CF4FB0149
:102290004AE050E070E060E0828193810E94761B0A
:1022A000709354046093530482E594E00E947B0988
:1022B0000C9462090895181619068CF4FB014AE083
:1022C00050E070E060E0828193810E94761B609311
:1022D000570482E594E00E947B090C9462090895FA
:1022E000181619068CF4FB014AE050E070E060E03B
:1022F000828193810E94761B6093560482E594E06C
:102300000E947B090C9462090895181619069CF422
:10231000FB014AE050E070E060E0828193810E941E
:10232000761B709359046093580482E594E00E94F0
:102330007B090C94620908951F920F920FB60F92B9
:1023400011242F933F938F939F93AF93BF938091CB
:10235000B4039091B503A091B603B091B703309147
:10236000B30326E0230F2D3758F50296A11DB11DAA
:102370002093B3038093B4039093B503A093B60363
:10238000B093B7038091B8039091B903A091BA03B9
:10239000B091BB030196A11DB11D8093B80390932A
:1023A000B903A093BA03B093BB03BF91AF919F91C0
:1023B0008F913F912F910F900FBE0F901F90189506
:1023C00029E8230F0396A11DB11DD2CF1F920F92B2
:1023D0000FB60F9211242F933F934F935F936F93F8
:1023E0007F938F939F93AF93BF93EF93FF938CE56E
:1023F00094E00E945404FF91EF91BF91AF919F919F
:102400008F917F916F915F914F913F912F910F909D
:102410000FBE0F901F9018951F920F920FB60F923C
:1024200011242F938F939F93EF93FF93E0916C046C
:10243000F0916D048081E0917204F091730482FD4B
:102440001BC09081809175048F5F8F7320917604FB
:10245000821741F0E0917504F0E0E45AFB4F958F4C
:1024600080937504FF91EF919F918F912F910F9021
:102470000FBE0F901F9018958081F4CF1F920F927E
:102480000FB60F9211242F933F934F935F936F9347
:102490007F938F939F93AF93BF93EF93FF93E091BD
:1024A0008603F0918703309749F0A685B785858527
:1024B000968D91FF14C09C918923A1F4FF91EF9117
:1024C000BF91AF919F918F917F916F915F914F914C
:1024D0003F912F910F900FBE0F901F9018959C91D8
:1024E000892361F7A389B4899C9185898095892383
:1024F0008C93868997890197F1F7608D718DA685F8
:10250000B785558538E020E0CB010197F1F7822FA0
:1025100090E095958795282F4C91452309F02068E8
:10252000315091F7868D81FD20958091850390E053
:1025300001968F73992730918403381799F0A091F1
:102540008503B0E0AC5BBC4F2C9380938503828DF8
:10255000938D0197F1F7A389B4898C919589892B83
:102560008C93ACCF868D8160868FF1CF1F920F92B6
:102570000FB60F9211242F933F934F935F936F9356
:102580007F938F939F93AF93BF93EF93FF9380912C
:10259000B900887F803609F44AC0F0F5883209F422
:1025A000A7C018F5803109F49BC0B8F4882309F45A
:1025B000F9C0883009F494C0FF91EF91BF91AF91B9
:1025C0009F918F917F916F915F914F913F912F914B
:1025D0000F900FBE0F901F901895883109F488C096
:1025E000803251F78093260414C0803409F49DC0D2
:1025F00040F48033B9F38833F9F68093260485ECF0
:10260000B0C0803509F485C0883509F496C0883497
:1026100099F60E94B610D0CF883909F48CC038F5ED
:10262000883729F050F4883611F0803729F683E096
:10263000809328041092230357C0883809F47BC084
:10264000803919F0803809F0B7CF809123038032A8
:1026500008F071C0E091230381E08E0F8093230383
:102660008091BB00F0E0ED5FFC4F80833DC0803B7C
:1026700039F0E0F4803A09F479C0883A09F09CCF47
:1026800084E0809328041092020310920103E091E9
:10269000BE03F091BF0309958091010381110FC022
:1026A00081E0809301031092E10209C0803C09F4AB
:1026B000A6CF883C09F4A3CF883B09F07DCFE091F9
:1026C000020381E08E0F80930203F0E0EF51FD4F93
:1026D00080818093BB00909102038091010329C007
:1026E000809103048093BB0085EC8093BC0064CF91
:1026F0009091250480912404981758F5E0912504C1
:1027000081E08E0F80932504F0E0EC5FFB4F808129
:10271000E9CFE091250481E08E0F8093250480911C
:10272000BB00F0E0EC5FFB4F80839091250480912B
:1027300024049817C8F285E8D8CFE091250481E0F9
:102740008E0F809325048091BB00F0E0EC5FFB4F7F
:1027500080838091270481115CCF81E08093020403
:1027600084EA8093BC001092280426CF85EC8093E5
:10277000BC001092280480912303803230F4E09151
:102780002303F0E0ED5FFC4F10826091230370E0C3
:10279000E091BC03F091BD0383E093E009951092B2
:1027A00023030ACF1092260434CF10925F041092B4
:1027B0005E0488EE93E0A0E0B0E080936004909324
:1027C0006104A0936204B093630420E631E0309387
:1027D0005D0420935C0425EC30E030936904209381
:1027E000680424EC30E030936B0420936A0420ECFE
:1027F00030E030936D0420936C0421EC30E0309392
:102800006F0420936E0422EC30E030937104209327
:10281000700426EC30E0309373042093720410921D
:102820007504109276041092770410927804109236
:10283000FC041092FB048093FD049093FE04A0938B
:10284000FF04B093000522E731E03093FA042093AF
:10285000F90410929D0510929C0580939E0590931B
:102860009F05A093A005B093A10584E891E0909303
:102870009B0580939A051092B1051092B0051092B5
:10288000B3051092B2051092B5051092B4051092DE
:10289000B7051092B6056091B8056E7F6D7F6093A5
:1028A000B8056695617081E0682783E00E94130394
:1028B00061E083E00E944103EFE0F4E0E491E09303
:1028C000AA05EBEFF3E0E491F0E0EE0FFF1FE25119
:1028D000FC4F859194919093AC058093AB0560E09B
:1028E00082E00E9441038091B80581FD04C061E04F
:1028F00082E00E94130382E08093A605EEE0F4E0FC
:10290000E491E093A705EAEFF3E0E491F0E0EE0F45
:10291000FF1FEC51FC4F859194919093A9058093F2
:10292000A80510921705109218051092190510921B
:102930001A0510920F0510920E0510920D050895BC
:10294000CF93DF93CDB7DEB7C85CD1090FB6F8944B
:10295000DEBF0FBECDBF789484B5826084BD84B5E0
:10296000816084BD85B5826085BD85B5816085BD8A
:1029700080916E00816080936E0010928100809142
:1029800081008260809381008091810081608093CA
:102990008100809180008160809380008091B100EF
:1029A00084608093B1008091B00081608093B0001A
:1029B00080917A00846080937A0080917A008260AE
:1029C00080937A0080917A008E7F80937A00809144
:1029D0007A00806880937A001092C100E0916C04C4
:1029E000F0916D0482E08083E0916804F0916904C5
:1029F0001082E0916A04F0916B0487E68083109264
:102A00007404E0917004F091710486E08083E09199
:102A10006E04F0916F04808180618083E0916E0488
:102A2000F0916F04808188608083E0916E04F09162
:102A30006F04808180688083E0916E04F0916F0460
:102A400080818F7D80831092B5051092B40510921D
:102A5000B3051092B2051092B1051092B0058DEC3D
:102A600090E09093B7058093B6059091A6059631B6
:102A700008F047C025E530E03093B1052093B0055C
:102A80002BEC30E03093B3052093B20520E930E021
:102A90003093B5052093B4052091680084E0983008
:102AA00048F031E09E3008F430E081E001C0880F4A
:102AB0003A95EAF7822B809368002DE630E0983053
:102AC00050F02BE630E09E3030F02CE630E09631CE
:102AD00010F030E020E03093AE052093AD05292FB3
:102AE00030E0983008F025C481E001C0880F9A9545
:102AF000EAF78093AF058091B6059091B7050197ED
:102B0000F1F78091B4059091B505892B49F1E091D9
:102B10008603F091870325E0EA39F20709F130973F
:102B200039F0A389B4899C918589809589238C93F8
:102B30008091B8058E7F8093B8051092850310921E
:102B400084038AE995E09093870380938603E0915C
:102B5000AD05F091AE0580819091AF05892B808302
:102B60008AE993E00E94380E83E893E00E94380ED1
:102B70000E94620980915204833041F480915A048A
:102B8000813021F480915B04823031F08FE693E054
:102B90000E94380E0E94480E61E086E00E944103C8
:102BA00060E088E00E94410361E089E00E94410307
:102BB00080918A0390918B03009711F00E946B2003
:102BC0008091880390918903009711F00E946B20F7
:102BD000109289031092880386E090E00E94CF1F34
:102BE0008C0156E7E52EDC01EC9289EF94E0129619
:102BF0009C938E93119713961C92139780E290E00A
:102C000015969C938E93149710938B0300938A03CD
:102C10001092C1031092C00310922F04109251041D
:102C20000E94DE0588EE92E09093BF038093BE037E
:102C300089EE92E09093BD038093BC03FF24F3944C
:102C4000F801F382C8010E947607882309F4F8C1CD
:102C5000E0921B0581E090E090931F0580931E0594
:102C600087E398E0909323058093220588E297E01C
:102C7000909325058093240510931D0500931C0552
:102C8000109221058CEA95E0909327058093260504
:102C90000E94010B8111D4C1C956DF4F1882C75958
:102CA000D0400E943C028E010F5F1F4F81118AC1EC
:102CB00080911E0590911F05019709F447C3F0927A
:102CC000210521E030E040E050E0BE0169567F4F31
:102CD00080E00E949F09811175C1C956DF4F88812C
:102CE000C759D040803519F0803609F06BC1809308
:102CF0001B050E94010B811165C185E1D8011D9260
:102D00008A95E9F725E130E040E050E0B80181E341
:102D10000E949F0969817A817093650560936405BB
:102D200090E080E00E94A61E20E030E040E853E4FE
:102D30000E945D1F609328057093290580932A05E2
:102D400090932B056B817C8170936705609366057A
:102D500090E080E00E94A61E20E030E040E850E3D2
:102D60000E945D1F60932C0570932D0580932E05A6
:102D700090932F056D8160936805062E000C770BEC
:102D8000880B990B0E94A81E20E030E040E857E233
:102D90000E945D1F6093300570933105809332056A
:102DA000909333056E817F8170936A056093690506
:102DB0007054072E000C880B990B0E94A81E20E06F
:102DC00030E040E855E30E945D1F60933405709346
:102DD000350580933605909337056885798570931E
:102DE0006C0560936B057054072E000C880B990BD3
:102DF0000E94A81E20E030E040E051E30E945D1FE9
:102E0000609338057093390580933A0590933B059C
:102E10006A8560936D05062E000C770B880B990B65
:102E20000E94A81E20E030E040E85FE20E945D1FA3
:102E300060933C0570933D0580933E0590933F055C
:102E40006B8560936E05062E000C770B880B990B33
:102E50000E94A81E20E030E040E05DE20E945D1F7D
:102E6000609340057093410580934205909343051C
:102E70006C857D857093700560936F0590E080E0B0
:102E80000E94A61E20E030E040E051E40E945D1F59
:102E900060934405709345058093460590934705DC
:102EA0006E857F85709372056093710590E080E078
:102EB0000E94A61E20E030E040E85CE30E945D1F17
:102EC000609348057093490580934A0590934B059C
:102ED000688960937305062E000C770B880B990B9D
:102EE0000E94A81E20E030E040E85BE30E945D1FE6
:102EF00060934C0570934D0580934E0590934F055C
:102F0000698960937405062E000C770B880B990B6A
:102F10000E94A81E20E030E040E058E30E945D1FC0
:102F2000609350057093510580935205909353051B
:102F30006A897B897093760560937505072E000C6E
:102F4000880B990B0E94A81E20E030E040E857E271
:102F50000E945D1F6093540570935505809356053C
:102F6000909357056C8960937705062E000C770BBC
:102F7000880B990B0E94A81E20E030E040E857E241
:102F80000E945D1F609358057093590580935A0500
:102F900090935B056D8960937805062E000C770B86
:102FA000880B990B0E94A81E20E030E040E05FE112
:102FB0000E945D1F60935C0570935D0580935E05C4
:102FC00090935F0525E130E040E050E0B80181E3F7
:102FD0000E949F09811134C0F801AE014A5E5F4F23
:102FE0001FEF3DE1219198E0822F8127881F8827DC
:102FF000881F110F220F839F802D112418279150B5
:1030000099F7E417F50771F721E030E040E050E070
:10301000BE0169567F4F80E30E949F091095C956F3
:10302000DF4F9881C759D04019130AC0811108C0D9
:1030300083E08093870581E080931005809381056C
:1030400083E08093850581E080930E0592E0909364
:10305000840580930F059093860580930D058CE57C
:1030600094E09093C3038093C20384EC93E0909325
:103070008F0380938E0310928D0310928C0364E46F
:1030800071E181EA91E00E94EE106FE271E189EA5C
:1030900091E00E94EE1060E771E181EB91E00E9407
:1030A000EE106BE571E188EB91E00E94EE1065E8AF
:1030B00071E18EEB91E00E94EE1068E47EE085EC19
:1030C00091E00E94EE106EE67EE08EEC91E00E94B0
:1030D000EE1068E570E183ED91E00E94EE100AE0E9
:1030E00010E00E944E0B2091940330919503409183
:1030F0009603509197030E94941D609394037093DC
:10310000950380939603909397030150110949F713
:1031100020E030E040E251E40E94051E60939403F9
:103120007093950380939603909397036093900315
:1031300070939103809392039093930368ED71E0F1
:103140008CE594E00E945610609194037091950371
:10315000809196039091970342E00E94ED0E62E900
:1031600071E08CE594E00E94290E48EE242E43E0A5
:10317000342E412C512C7E01B7E9EB0EF11CFE01DF
:1031800031966F018091AB0381110DC00E94CA037B
:103190006093A7037093A8038093A9039093AA0355
:1031A00081E08093AB0380919F0381110DC00E9449
:1031B000CA0360939B0370939C0380939D03909339
:1031C0009E0381E080939F030E94CA0380909B032B
:1031D00090909C03A0909D03B0909E03681979097C
:1031E0008A099B09693873418105910508F466C015
:1031F00061E086E00E9413030E94CA0368197909FE
:103200008A099B09A20191010E94F21C80919903F5
:1032100090919A03280F391F30939A0320939903B2
:1032200010919803111104C010929A0310929903FF
:103230000E94CA0360939B0370939C0380939D0339
:1032400090939E0365EF71E0113051F062EF71E0F1
:10325000113030F06BEF71E0123011F064E072E089
:103260008CE594E00E9456106AE072E08CE594E0F0
:103270000E9456106091990370919A0390E080E04B
:103280004AE00E94920E6AE072E08CE594E00E94AF
:1032900056106091900370919103809192039091E8
:1032A000930342E00E94ED0E62E971E08CE594E048
:1032B0000E94290E60E086E00E9413038091C20301
:1032C0009091C303DC01ED91FC910084F185E02D28
:1032D0000995892B09F471C08091C2039091C303B1
:1032E000DC01ED91FC910284F385E02D0995482FD6
:1032F0008A3021F38091C2039091C3034D3049F18C
:103300004830C9F5DC01ED91FC910190F081E02D90
:1033100068E0099580918E0390918F03B3E0843C1F
:103320009B0761F258F2019790938F0380938E036D
:10333000C5CF9E3040F42850310981E001C0880F8C
:103340002A95EAF7D6CB2E503109F7CF10922105F6
:10335000B8CCE0918E03F0918F03108262E971E0A6
:103360000E9456100E94DD0FE4ECF3E0F0938F030F
:10337000E0938E03A3CFE0918E03F0918F039F0122
:103380002F5F3F4F30938F0320938E034083245C45
:1033900033402B3331050CF491CF6CE072E00E9486
:1033A0005610E0918E03F0918F03108262E971E074
:1033B0008091C2039091C303D3CF80919803813051
:1033C000B9F180F0823009F470C180E090E0892B7F
:1033D00009F4D8CE0E944004882309F4D3CE0E9479
:1033E0000000D0CE8090940390909503A090960317
:1033F000B09097030E944E0B9B01AC01C501B40134
:103400000E94931D4B015C01609158047091590416
:1034100090E080E00E94A61E9B01AC01C501B401B2
:103420000E94581F18168CF681E080939803CDCF28
:103430000E94CA030091A7031091A8032091A90339
:103440003091AA03601B710B820B930B61317742A1
:103450008105910508F4B9CF0E94CA036093A703C0
:103460007093A8038093A9039093AA030E944E0B24
:103470004B015C012091000130910101409102015A
:10348000509103010E94001E87FF08C08092000136
:1034900090920101A0920201B092030180929003E8
:1034A00090929103A0929203B0929303809199031A
:1034B00090919A036CE370E00E94651D8091550421
:1034C00000E08617170609F038F460E272E08CE538
:1034D00094E00E94C90F01E060915304709154047C
:1034E00090E080E00E94A61E20919003309191030D
:1034F00040919203509193030E94581F18163CF478
:103500006EE372E08CE594E00E94C90F0F5F82E3E6
:10351000D7011D928A95E9F7809157041F928F93E6
:10352000ECE5F2E0FF93EF93FF92EF920E9404210B
:1035300086E9D6011D928A95E9F70F900F900F90BA
:103540000F900F900F90BB24B39410E036E9A32E98
:103550008AE995E00E947305892BD1F08AE995E00C
:103560000E948B058A3011F0153160F0B601C70159
:103570000E94F420B82EF6012A2D11922A95E9F71F
:1035800010E0E6CFF601E10FF11D80831F5FE0CF71
:10359000B11074C06BE672E08CE594E00E94C90F34
:1035A0006EE772E08CE594E00E94C90F0F5F2AE09D
:1035B000A22EB12CEBEBF3E08491E4E1F4E0749003
:1035C000E0E0F4E01491111160C0B39465E070E0A4
:1035D00080E090E00E949703AA94A110EBCFFAE05C
:1035E000BF1207C06AEA72E08CE594E00E94C90F3E
:1035F0000F5F6091580470915904660F771F90E037
:1036000080E00E94A61E20910001309101014091AE
:103610000201509103010E94941D2091900330916A
:10362000910340919203509193030E94001E87FFE3
:1036300009C064EC72E08CE594E00E94C90F82E05E
:1036400080939803002309F4C0CE61E089E00E94D2
:1036500013038091560428EE33E0829FB001839FCC
:10366000700D1124072E000C880B990B0E949703F4
:1036700060E089E00E94130382E0D7CE64E972E043
:103680008CE594E00E94C90F92CF81110E94EA025A
:10369000E12FF0E0EE0FFF1FEC51FC4FA591B4912C
:1036A0008C91782209F491CF97CF61E086E00E9457
:1036B00013038BCE84E891E090939B0580939A0549
:1036C00080918603909187038A59954071F4E09127
:1036D000AD05F091AE0590818091AF05809589236D
:1036E000808310928703109286030895B0E0A0E0D3
:1036F000ECE7FBE10C94201D5C016B017A01611584
:10370000710519F0FB0191838083E114F10451F0FC
:10371000C7010297839730F040E030E020E090E06E
:1037200072C05E01E5012196F5011081812F90E0C4
:103730000E948D1C892BA9F71D3201F52196F501F8
:10374000118101E0E114F10409F4DAC0F0E1EF16AF
:10375000F10409F082C0103359F488818F7D8835D7
:1037600009F076C0198122960260F0E1EF2EF12C6B
:10377000812C912CA12C88E0B82E8CC01B3221F416
:10378000E5012296F501118100E0DCCFEAE0EE16BA
:10379000F10409F4BBC0F0E1EF16F10409F06DC0CB
:1037A000E7CF78E0E72EF12C812C912CA12C60E161
:1037B000B62E70C03FE9310F3A3128F439EA332E82
:1037C00080C021E09AC0302F3170C114D10431F093
:1037D000222309F12197F601D183C08327FF21C05D
:1037E00060E070E080E090E8311104C06FEF7FEF9F
:1037F0008FEF9FE722E230E03093BC052093BB05BA
:10380000462F372F282F642F732F822FCDB7DEB787
:10381000E1E10C943C1D01FF04C02297F601D18325
:10382000C083332341F090958095709561957F4FCB
:103830008F4F9F4FE5CF97FFE3CF82E290E09093C9
:10384000BC058093BB056FEF7FEF8FEF9FE7D8CF6D
:1038500010E3E114F10409F4A4CF28E0E216F10426
:1038600009F4A2CF0CF092CF812C912CA12CE0E492
:10387000BE2E82E0E816F10469F060E070E080E0BE
:1038800090E897010F2C000C440B550B0E94F21C82
:1038900049015A0120E060E070E0CB0127010F2CC4
:1038A000000C66087708FE0150ED352E310E39E028
:1038B000331540F43FEB310F3A3108F07BCF49EC40
:1038C000342E310E3E141F040CF07DCF27FD15C0A1
:1038D00086169706A806B90678F0A30192010E9401
:1038E000E21C630D711D811D911D61307105810503
:1038F00020E8920708F465CF2FEF21961081D3CFEF
:10390000103309F42ACF2AE0E22EF12C9CEC892E08
:10391000982CA82C9CE0B92EBDCF91110C94C91CF9
:10392000803219F089508550C8F70895FB01DC01F9
:1039300005900D920020E1F7089549EB55E00E94B3
:10394000A21C0895FA01A191B081009719F4109773
:10395000E1F0CD01DC01CD010D90002011F4C0019A
:1039600013C0FB012191222319F02015D9F7F3CFC1
:10397000FB012191201519F41E92119606C02223F5
:10398000C1F70D900020A1F7D001FA01A193B083F7
:103990000895992788270895F999FECF92BD81BD92
:1039A000F89A992780B50895262FF999FECF1FBA66
:1039B00092BD81BD20BD0FB6F894FA9AF99A0FBE58
:1039C00001960895DB018F939F930E94141DBF9170
:1039D000AF91A29F800D911DA39F900DB29F900D5E
:1039E00011240895A1E21A2EAA1BBB1BFD010DC0D4
:1039F000AA1FBB1FEE1FFF1FA217B307E407F5079F
:103A000020F0A21BB30BE40BF50B661F771F881F7A
:103A1000991F1A9469F760957095809590959B0110
:103A2000AC01BD01CF0108950E94561DA59F900DC8
:103A3000B49F900DA49F800D911D112408952F9285
:103A40003F924F925F926F927F928F929F92AF922E
:103A5000BF92CF92DF92EF92FF920F931F93CF937B
:103A6000DF93CDB7DEB7CA1BDB0B0FB6F894DEBF12
:103A70000FBECDBF09942A88398848885F846E8438
:103A80007D848C849B84AA84B984C884DF80EE8082
:103A9000FD800C811B81AA81B981CE0FD11D0FB68B
:103AA000F894DEBF0FBECDBFED010895A29FB00117
:103AB000B39FC001A39F700D811D1124911DB29F62
:103AC000700D811D1124911D0895AA1BBB1B51E18E
:103AD00007C0AA1FBB1FA617B70710F0A61BB70B7E
:103AE000881F991F5A95A9F780959095BC01CD0123
:103AF000089597FB072E16F4009407D077FD09D0A0
:103B00000E94651D07FC05D03EF4909581959F4F5E
:103B10000895709561957F4F0895EE0FFF1F0590F2
:103B2000F491E02D09945058BB27AA270E94AB1DA1
:103B30000C941E1F0E94101F38F00E94171F20F0C7
:103B400039F49F3F19F426F40C940D1F0EF4E09500
:103B5000E7FB0C94071FE92F0E942F1F58F3BA1799
:103B6000620773078407950720F079F4A6F50C9493
:103B7000511F0EF4E0950B2EBA2FA02D0B01B901A9
:103B800090010C01CA01A0011124FF27591B99F0D3
:103B9000593F50F4503E68F11A16F040A22F232FDF
:103BA000342F4427585FF3CF469537952795A7952F
:103BB000F0405395C9F77EF41F16BA0B620B730BD6
:103BC000840BBAF09150A1F0FF0FBB1F661F771F47
:103BD000881FC2F70EC0BA0F621F731F841F48F4FC
:103BE000879577956795B795F7959E3F08F0B0CF85
:103BF0009395880F08F09927EE0F9795879508956C
:103C00000E94E31E08F481E008950E94191E0C949E
:103C10001E1F0E94171F58F00E94101F40F029F429
:103C20005F3F29F00C94071F51110C94521F0C9404
:103C30000D1F0E942F1F68F39923B1F3552391F3B1
:103C4000951B550BBB27AA2762177307840738F00B
:103C50009F5F5F4F220F331F441FAA1FA9F335D068
:103C60000E2E3AF0E0E832D091505040E695001C1C
:103C7000CAF72BD0FE2F29D0660F771F881FBB1FD6
:103C8000261737074807AB07B0E809F0BB0B802DB4
:103C9000BF01FF2793585F4F3AF09E3F510578F0E0
:103CA0000C94071F0C94521F5F3FE4F3983ED4F32B
:103CB000869577956795B795F7959F5FC9F7880FB4
:103CC000911D9695879597F90895E1E0660F771F06
:103CD000881FBB1F621773078407BA0720F0621B97
:103CE000730B840BBA0BEE1F88F7E09508950E94C2
:103CF000371F88F09F5798F0B92F9927B751B0F028
:103D0000E1F0660F771F881F991F1AF0BA95C9F75F
:103D100014C0B13091F00E94511FB1E008950C948D
:103D2000511F672F782F8827B85F39F0B93FCCF340
:103D3000869577956795B395D9F73EF490958095DC
:103D4000709561957F4F8F4F9F4F0895E89409C0FC
:103D500097FB3EF490958095709561957F4F8F4FBE
:103D60009F4F9923A9F0F92F96E9BB279395F695D4
:103D7000879577956795B795F111F8CFFAF4BB0F52
:103D800011F460FF1BC06F5F7F4F8F4F9F4F16C0B6
:103D9000882311F096E911C0772321F09EE8872F40
:103DA000762F05C0662371F096E8862F70E060E0FC
:103DB0002AF09A95660F771F881FDAF7880F969575
:103DC000879597F90895990F0008550FAA0BE0E819
:103DD000FEEF16161706E807F907C0F012161306CD
:103DE000E407F50798F0621B730B840B950B39F40D
:103DF0000A2661F0232B242B252B21F408950A2673
:103E000009F4A140A6958FEF811D811D089597F9B2
:103E10009F6780E870E060E008959FEF80EC089570
:103E200000240A9416161706180609060895002499
:103E30000A9412161306140605060895092E039413
:103E4000000C11F4882352F0BB0F40F4BF2B11F487
:103E500060FF04C06F5F7F4F8F4F9F4F089557FDE6
:103E60009058440F551F59F05F3F71F04795880FE8
:103E700097FB991F61F09F3F79F08795089512167F
:103E800013061406551FF2CF4695F1DF08C016162B
:103E900017061806991FF1CF8695710561050894DC
:103EA0000895E894BB2766277727CB0197F90895F3
:103EB0000E94E31E08F48FEF08950E94701F0C9477
:103EC0001E1F0E94101F38F00E94171F20F095231C
:103ED00011F00C94071F0C940D1F11240C94521F09
:103EE0000E942F1F70F3959FC1F3950F50E0551F4F
:103EF000629FF001729FBB27F00DB11D639FAA273F
:103F0000F00DB11DAA1F649F6627B00DA11D661F8D
:103F1000829F2227B00DA11D621F739FB00DA11DAE
:103F2000621F839FA00D611D221F749F3327A00D68
:103F3000611D231F849F600D211D822F762F6A2F04
:103F400011249F5750409AF0F1F088234AF0EE0F69
:103F5000FF1FBB1F661F771F881F91505040A9F796
:103F60009E3F510580F00C94071F0C94521F5F3F39
:103F7000E4F3983ED4F3869577956795B795F795D2
:103F8000E7959F5FC1F7FE2B880F911D969587954A
:103F900097F908950E94E31E880B990B08950F93DB
:103FA0001F93CF93DF938230910510F482E090E06D
:103FB000E091BF05F091C00530E020E0B0E0A0E066
:103FC000309799F42115310509F44AC0281B390BA3
:103FD00024303105D8F58A819B816115710589F1FD
:103FE000FB0193838283FE0111C0408151810281D4
:103FF000138148175907E0F04817590799F41097AB
:1040000061F012960C93129713961C933296CF017F
:10401000DF91CF911F910F9108950093BF051093E9
:10402000C005F4CF2115310551F04217530738F080
:10403000A901DB019A01BD01DF01F801C1CFEF0148
:10404000F9CF9093C0058093BF05CDCFFE01E20F5D
:10405000F31F819391932250310939832883D7CF5D
:104060002091BD053091BE05232B41F4209106011E
:10407000309107013093BE052093BD0520910401C6
:10408000309105012115310541F42DB73EB740911E
:10409000080150910901241B350BE091BD05F091F9
:1040A000BE05E217F307A0F42E1B3F0B28173907B4
:1040B00078F0AC014E5F5F4F2417350748F04E0F84
:1040C0005F1F5093BE054093BD05819391939FCF91
:1040D000F0E0E0E09CCFCF93DF930097E9F0FC01A4
:1040E000329713821282A091BF05B091C005ED01F5
:1040F00030E020E01097A1F420813181820F931FDE
:104100002091BD053091BE052817390709F061C01F
:10411000F093BE05E093BD05DF91CF910895EA01CC
:10412000CE17DF07E8F54A815B819E0141155105F5
:10413000B1F7E901FB83EA8349915991C40FD51F77
:10414000EC17FD0761F4808191810296840F951F21
:10415000E90199838883828193819B838A83F0E03C
:10416000E0E012968D919C9113970097B9F52D91EF
:104170003C911197CD010296820F931F2091BD05AE
:104180003091BE052817390739F6309751F510924E
:10419000C0051092BF05B093BE05A093BD05BCCF6E
:1041A000D383C28340815181840F951FC817D907DB
:1041B00061F44E5F5F4F88819981480F591F518389
:1041C00040838A819B81938382832115310509F085
:1041D000B0CFF093C005E093BF059ECFFD01DC0199
:1041E000C0CF13821282D7CFFB01DC018D910190E9
:1041F00080190110D9F3990B0895FB01DC0101909E
:104200000D920020E1F70895AEE0B0E0EAE0F1E2BF
:104210000C942D1D0D891E8986E08C831A830983D9
:104220008FEF9FE79E838D83AE01475E5F4F6F895F
:10423000788DCE0101960E9427212F813885020FAB
:10424000131FF80110822E96E4E00C94491DABE098
:10425000B0E0EDE2F1E20C941F1D7C013B018A010C
:10426000FC0117821682838181FFC8C1CE010196AD
:104270005C01F7019381F30193FD859193FF819197
:104280003F01882309F453C1853239F493FD8591A8
:1042900093FF81913F01853229F4B70190E00E949C
:1042A0001723E7CF912C212C312CFFE1F31538F0A7
:1042B0008B3211F190F4803209F1833229F137FC0D
:1042C0003CC020ED280F2A3050F536FE20C08AE091
:1042D000989E200D1124922E06C08D3291F08033CD
:1042E00071F7689430F8F30193FD859193FF819104
:1042F0003F018111DACF21C0689431F8689432F817
:10430000F2CF689433F8EFCF689434F8ECCFEAE05A
:104310002E9E200D1124222E689435F8E4CF8E3283
:1043200029F436FC04C1689436F8DDCF8C3619F4D4
:10433000689437F8D8CF8836B1F2982F9F7D95547E
:104340009330E0F08336A1F18337C1F1833509F072
:1043500063C02801F2E04F0E511CF801C080D180EB
:10436000692D70E036FC02C06FEF7FEFC6010E943E
:1043700001234C01689437F882010AC00C5F1F4F7B
:10438000FFE3F98388248394912C6501E89437F83E
:1043900033FE2DC0522C8114910471F5552009F47F
:1043A00068CFB70180E290E00E9417235A94F6CFBD
:1043B000F801808189830E5F1F4FE4CF2801F2E06E
:1043C0004F0E511CF801C080D180692D70E036FC81
:1043D00002C06FEF7FEFC6010E940C234C018201E7
:1043E000D5CFB70180E290E00E9417232A942814C9
:1043F000190409F0B0F7CECFF60137FC859137FEEE
:1044000081916F01B70190E00E94172351105A94D7
:10441000F1E08F1A9108BFCF843619F0893609F080
:1044200077C0F80137FE6BC0608171818281938112
:104430000C5F1F4FF32DFF763F2E97FF09C090951D
:104440008095709561957F4F8F4F9F4F689437F897
:104450002AE030E0A5010E944723C82ECA188C2C00
:10446000432C36FE0CC0E89440F8C91440F434FEE6
:1044700005C032FC03C0F32DFE7E4F2E892C44FE76
:1044800095C0FE01EC0DF11D8081803309F087C0DD
:10449000242D297E422E842D8870582E43FC95C0F1
:1044A00040FE8FC09C2C821418F42C0C922C98186F
:1044B00044FE91C0B70180E390E00E94172342FEC2
:1044C00009C088E790E041FE02C088E590E0B701AE
:1044D0000E941723C91408F48AC0CA94D12C9FEFF4
:1044E000C91AD90ACA0CDB1CF60182916F01B70107
:1044F00090E00E941723AC14BD04B1F74FCF608148
:104500007181072E000C880B990B0E5F1F4F92CF05
:10451000D32CE894D4F82AE030E0853739F1232D04
:10452000297FD22E8F3601F148F48835A9F0F701A2
:10453000868197812B96E2E10C943B1D803749F0F0
:104540008837A9F7D4FE02C06894D2F820E130E0A1
:104550000DC06894D4F8F6CF34FE03C0822F866075
:10456000D82E20E132E002C028E030E0F801D7FE8A
:104570000FC060817181828193810C5F1F4FA50103
:104580000E944723C82ECA183D2CE89437F867CFFD
:104590006081718190E080E00E5F1F4FF0CF42FCA0
:1045A00002C0839478CF8394839475CF842D8678CA
:1045B00009F471CFF6CFB70180E290E00E94172393
:1045C00083948214C0F3512C73CF522C5818821448
:1045D00008F46ECFF8CF842D867809F47BCF8BE278
:1045E00041FE80E247FC8DE2B70190E071CFB70158
:1045F00080E390E00E9417239A946CCF8FEF9FEF97
:1046000099CFFC010590615070400110D8F780955A
:1046100090958E0F9F1F0895FC016150704001908E
:104620000110D8F7809590958E0F9F1F08950F93D6
:104630001F93CF93DF93182F092FEB018B8181FDFF
:1046400009C01FEF0FEF812F902FDF91CF911F91A6
:104650000F91089582FF14C02E813F818C819D812E
:10466000281739073CF4E881F981CF010196998335
:10467000888310838E819F8101969F838E83E3CFF1
:10468000E885F985812F0995892BA1F3DACFFA0105
:10469000AA27283051F1203181F1E8946F936E7F81
:1046A0006E5F7F4F8F4F9F4FAF4FB1E03ED0B4E072
:1046B0003CD0670F781F891F9A1FA11D680F791FB3
:1046C0008A1F911DA11D6A0F711D811D911DA11DC4
:1046D00020D009F468943F912AE0269F11243019D4
:1046E000305D3193DEF6CF010895462F4770405D6F
:1046F0004193B3E00FD0C9F7F6CF462F4F70405D1E
:104700004A3318F0495D31FD4052419302D0A9F778
:10471000EACFB4E0A6959795879577956795BA9572
:10472000C9F700976105710508959B01AC010A2E38
:1047300006945795479537952795BA95C9F7620F0F
:10474000731F841F951FA01D089512E0C1E1D2E0E0
:1047500004C0FE010E948D1D2196C231D107C9F708
:04476000F894FFCFFB
:1047640000A00C460000C10580008813000010273B
:104774000000204E0000409C0000803801000071C1
:10478400020000E2040000C40900008813000010C5
:10479400270000204E0000409C00008038010000EB
:1047A40071020000E2040000C40900008813000044
:1047B4001027030A00781EFF0A000102000000000F
:1047C4007604D6030304DE04340412042604000031
:1047D40000000508D80734081605D107BE07AF073F
:1047E400000000001705D6033408160573058B0571
:1047F400FE040D0A006E616E00696E66006F7666D7
:1048040000534554505245530053455454494D4563
:1048140000534554445552005345544944005345AC
:104824005441524D0044454641554C54530048456B
:104834004C500053484F57005374617274696E674B
:104844002070726573737572652028685061293A07
:10485400200044495341524D454400434F4D504C70
:10486400455445004552524F520009004F56455297
:10487400464C4F57202D20436C656172696E67006A
:10488400466C69676874204475726174696F6E2040
:104894004C696D6974205265616368656400466C97
:1048A40069676874205072657373757265204C690A
:1048B4006D69742052656163686564004E53534C9E
:1048C40020435554444F574E256400584265652093
:1048D400436F6D6D616E64204D617463680058426E
:1048E400656520437574646F776E205265636569EE
:1048F400766564005842656520436F6D6D616E6432
:10490400204E4F204D617463680045787465726E63
:10491400616C20437574646F776E205265636569BA
:1049240076656400464C49474854204E41545552DC
:10493400414C4C59205445524D494E415445440034
:00000001FF
